:020000040800F2
:10000000F8F3002015720108A1400108A34001087F
:10001000A5400108A7400108A94001080000000010
:10002000000000000000000000000000AD9100088A
:10003000AB40010800000000519100080B6C000863
:10004000997501089D750108A1750108A57501083C
:10005000A9750108AD750108B1750108B5750108EC
:10006000B9750108BD750108C1750108C57501089C
:10007000C9750108CD750108D1750108D57501084C
:10008000D9750108DD750108E1750108E5750108FC
:10009000E9750108ED750108F1750108F5750108AC
:1000A000F9750108AD400108FD75010801760108E8
:1000B00005760108097601080D7601081176010818
:1000C00015760108197601081D76010821760108C8
:1000D0002576010829760108B74001082D76010828
:1000E0003176010835760108397601083D76010838
:1000F0004176010845760108497601084D760108E8
:100100005176010855760108597601085D76010897
:100110006176010865760108697601086D76010847
:100120007176010875760108797601087D760108F7
:100130008176010885760108897601088D760108A7
:100140009176010895760108997601089D76010857
:10015000A1760108A5760108A9760108C140010829
:10016000AD760108B1760108B5760108B9760108C7
:10017000BD760108C1760108C576010800000000BF
:10018000C9760108CD760108D1760108D576010837
:10019000D9760108DD760108E1760108E5760108E7
:1001A000E9760108ED760108F1760108F576010897
:1001B000F9760108FD760108017701080577010845
:1001C000097701080D770108000000001177010888
:1001D00015770108197701081D77010821770108B3
:1001E00025770108297701082D7701083177010863
:1001F000357701083977010870B50400DFF8F05948
:1002000045222900DFF8EC0901F05BFA002C02D14D
:100210007FF0010072E00020606101F011FAE060FF
:10022000E06800280AD15FF0FF334D222900DFF893
:10023000FC0901F046FA5FF0FF305FE001F000FAE0
:100240002061206900280AD15FF0FF335122290084
:10025000DFF8D80901F035FA5FF0FF304EE001F029
:1002600055FAE061E06900280ED0DFF8C469E06962
:10027000C660DFF8C009E169086101F047FAA061D2
:10028000A069002823D017E05B222900DFF8A80925
:1002900001F017FADFF8A40901F013FA7DA001F0CC
:1002A00010FA5FF0FF335C222900DFF8800901F0CB
:1002B00008FA5FF0FF3021E0A069C66000236A22DF
:1002C0002900DFF8680901F0FCF9002016E0662239
:1002D0002900DFF8640901F0F4F9DFF8640901F09E
:1002E000F0F96CA001F0EDF95FF0FF33672229000F
:1002F000DFF8380901F0E5F95FF0FF3070BD2DE956
:10030000F84F06000F00DFF83C9985224946DFF8D8
:10031000E40801F0D6F9002E02D17FF00100B6E02A
:100320003069002802D17FF00100B0E0002F02D137
:100330007FF00100ABE07868002802D17FF0010077
:10034000A5E05FF0000878688068002845D038781C
:10035000042842D0002400250121786801F061FAC8
:100360008246002817D17FF0010B97224946DFF81B
:10037000C80801F0A6F9DFF8D00801F0A2F945A0FD
:1003800001F09FF95B4698224946DFF8A00801F08A
:1003900098F958467BE0504601F062FA0400002CC0
:1003A00003D1504601F068FA17E0A0680500002D5F
:1003B0000DD1A5224946DFF8800801F082F9DFF867
:1003C0008C0801F07EF933A001F07BF9E3E73A787D
:1003D0002900300001F025FBDDE7387804284ED1F4
:1003E000306901F041F9F0698068002844D00024A8
:1003F0005FF0000A00250121F06901F012FA009077
:10040000002817D17FF0010BBD224946DFF82808EC
:1004100001F057F9DFF8380801F053F91DA001F099
:1004200050F95B46BE224946DFF8000801F049F961
:1004300058462CE0009801F013FA0400002C03D178
:10044000009801F019FA17E0A0688246DAF8000077
:100450000500002D0DD1CC224946DFF8DC0701F064
:1004600030F9DFF8E80701F02CF90AA001F029F9CA
:10047000E0E700206860DDE7306901F00AF94346F3
:10048000D6224946DFF8A40701F01BF94046BDE833
:10049000F28F00000A0000002DE9F84F06000F005F
:1004A00090461D00DFF8E899DC224946DFF8440752
:1004B00001F007F9002E02D17FF001004CE0002D81
:1004C00002D17FF0010047E05FF0000A2900300010
:1004D00000F0CAFF83462A004146380000F0BAFD0A
:1004E0000400002C2CD12A004146380000F064FEA4
:1004F0000400002C24D12B0042463900300000F0CB
:1005000027FF0400002C1BD1F7224946DFF884099D
:1005100001F0D7F83900DFF8800901F0D2F894A093
:1005200001F0CFF83A002978300000F0A4F8040078
:10053000002C05D129003000FFF7E1FE0400002C5B
:10054000280000F063F9230040F209124946DFF861
:10055000DC0601F0B6F82000BDE8F28F2DE9F64F79
:1005600083B006000F00DFF834994FF487724946D4
:10057000DFF8800601F0A5F8D6F80080802001F0B1
:1005800094F80400002C19D14FF48B724946DFF81F
:10059000A80601F096F8DFF8080901F092F874A0B7
:1005A00001F08FF85FF0FF3340F217124946DFF891
:1005B0007C0601F086F85FF0FF3059E05FF0800ABA
:1005C0005FF0000B25005A465146280001F036FB2B
:1005D000B068009073683A008021200001F07FF835
:1005E000684600210022002380E80E000498019054
:1005F00001208DF800006A462100404601F0E4FC2D
:100600000500002D10D540F223124946DFF82806D8
:1006100001F057F82A003900DFF81C0A01F051F800
:1006200053A001F04EF817E04FF47A71404601F004
:10063000B7FC0500002D0FD040F229124946DFF823
:10064000F80501F03EF82A002100DFF8F00901F07A
:1006500038F847A001F035F8200001F02CF82B0005
:100660004FF497724946DFF8C40501F02AF82800D4
:1006700005B0BDE8F08F2DE9F047A6B004000D00ED
:100680001600DFF8BC9940F233124946DFF86405E2
:1006900001F017F8002706A8802101F00DFE2800C0
:1006A000C0B200280AD1A06800906368DFF89429DE
:1006B000802106A801F013F8804609E0A0680090A8
:1006C0006368DFF88429802106A801F008F88046D5
:1006D000B8F1000F02D4B8F1800F19DB40F24512D7
:1006E0004946DFF8540500F0ECFFDFF8600900F040
:1006F000E8FF1FA000F0E5FF5FF0FF334FF4A372A7
:100700004946DFF8280500F0DCFF5FF0FF302CE001
:10071000DFF83C0905706846182101F0CDFD012085
:100720008DF80000300001F0E7FD059004966A4660
:1007300006A9206801F03DFC8246BAF1000F09D4F9
:1007400000234FF4A9724946DFF8E00400F0B9FF36
:1007500000200AE05FF0FF334FF4AB724946DFF848
:10076000CC0400F0AEFF5FF0FF3026B0BDE8F087AC
:100770000A0000002DE9F04705000E00170098461A
:10078000DFF8289A4FF4BF724946DFF8680400F09A
:1007900098FF5FF0000A142000F087FF0400002C8F
:1007A0000FD14FF4C2724946DFF88C0400F089FF84
:1007B000DFF8FC0900F085FFB0A000F082FF002008
:1007C00022E0257000F0A2FF60606068002809D078
:1007D000DFF85C046168C860E660A760C4F8108058
:1007E000200011E040F28F124946DFF84C0400F07F
:1007F00068FFDFF8C00900F064FFA0A000F061FF0F
:10080000200000F058FF0020BDE8F0872DE9F041FE
:1008100004004FF4CE72DFF8301BDFF8D80300F08D
:1008200050FF002C17D02500686887686868D0F8EA
:1008300000803800471E002807D0D8F804000600C2
:10084000404600F038FFB046F3E7686800F033FF39
:10085000200000F030FFBDE8F0812DE9F04FADF54C
:10086000006D83B006000F00DFF8E0BA4FF4DC72D1
:100870005946DFF8800300F024FF5FF000085FF0C6
:10088000000940F6010ADFF8C8170878012808D0E7
:100890000878002805D00878022802D008780528B2
:1008A00007D10023012200210520FFF763FF8146C5
:1008B0000FE00878032805D00878042802D00878CB
:1008C000062806D10023012200210620FFF752FF4F
:1008D0008146306900F0C8FEF0698068002847D082
:1008E000002400250121F06900F09BFF0190002801
:1008F00007D14FF4EB725946DFF8600B00F0E1FED0
:100900004EE0019800F0ACFF0400002C03D10198E8
:1009100000F0B2FF2CE0A0680500002D0CD140F2E1
:10092000E3125946C44800F0CCFEC84800F0C9FEA6
:1009300052A000F0C6FEE4E728680028E1D029684C
:10094000380001F01BFF80460028DAD068680028D4
:100950000BD0404601F0D0FC0300286800904246CE
:1009600049463000D5F804C0E04700200400C8E73D
:10097000306900F08EFE4B46524602A93000FFF768
:100980008BFD4FF47A71306801F00AFB404600F0AD
:1009900092FE4FF400725946DFF8C00A00F091FE53
:1009A0000DF5006D03B0BDE8F08F2DE9F84F0400A0
:1009B0000D0016001F00DFF8A89A4FF40272494696
:1009C0008C4800F07EFEE06800F04EFEDFF8C4A424
:1009D0004FF403724946504600F073FEA968DFF8F1
:1009E000840A00F06EFE0FF2940B584600F069FE88
:1009F000A868002835D0002000900121280000F0D0
:100A000010FF804600280AD1E06800F042FE40F264
:100A100016224946DFF8440A00F053FE2BE0404618
:100A200000F01EFF00900098002803D1404600F01F
:100A300023FF16E00098806800280CD140F22222A3
:100A40004946504600F03DFE804800F03AFE5846C8
:100A500000F037FEE3E733002A0069462000B8477C
:100A6000DDE7E06800F015FE40F22D224946DFF890
:100A7000EC0900F026FEBDE8F18F00000A0000003E
:100A80002DE9FE4F05000E0017009846DFF8EC9A9E
:100A900040F235224946574800F013FE306884681A
:100AA000002C07D140F239224946DFF8B00900F0A6
:100AB00008FE5AE07FF0020A00200190DFF8C01A19
:100AC000404601F0ABFE002802D10020824631E012
:100AD000DFF8B01A404601F0A1FE002806D0DFF88A
:100AE000A81A404601F09AFE002823D101A9DFF898
:100AF0009C0A01F0CDFD83465846C0B2002809D0BB
:100B00000198002802D10020824613E05FF0FF30F8
:100B100082460FE040F24F224946474800F0D1FD9F
:100B2000DFF86C0A00F0CDFD11A000F0CAFD5FF007
:100B3000FF308246206900280AD0A0680090DFF8C4
:100B40004C3A524652B221782800D4F810C0E047FF
:100B50003168380000F03DFE002030604FF417721D
:100B60004946DFF8F80800F0ACFDBDE8F78F00005B
:100B70000A0000002DE9F84305000E001700984612
:100B8000DFF8109A4FF4197249461A4800F099FD9F
:100B900030688468002C07D14FF41A724946DFF898
:100BA000BC0800F08EFD20E014F10C0001F03FFEC7
:100BB000002813D0206900280AD0A0680090DFF830
:100BC000CC397FF0010221782800D4F810C0E0472A
:100BD0003168380000F0FDFD0020306040F27622E0
:100BE0004946DFF8780800F06CFDBDE8F1830000AD
:100BF000606B01083064010838B50400DFF89859CB
:100C000040F27B222900DFF8940900F05AFDDFF85A
:100C100090390022A1692000FFF7C7FE40F27F2231
:100C20002900DFF8380800F04CFD31BD0C490108FF
:100C3000B71600085B190008F4700108F0440108B9
:100C4000CC4E0108F05C0108785601080C5D0108E3
:100C5000486401082DE9F64F89B004000D00DFF863
:100C6000447940F289223900DFF8300900F029FD8B
:100C7000002C00F00781002D00F0048107940798F4
:100C800041F238014658A8680690E868089006982E
:100C9000002802D00898002807D140F29522390098
:100CA000DFF8B80700F00DFDECE000200190002017
:100CB0000390686940F6020188420ED340F29D22FB
:100CC0003900DFF8E40800F0FCFCDFF8E00800F091
:100CD000F8FC6EA000F0F5FCCAE0686940F601017E
:100CE000884202D34FF4006801E0D5F8148018F16F
:100CF0000100059028690490DFF89098CA46059A8B
:100D00000499504601F0C4FD002009F80800DFF8FE
:100D100084A140F2A5223900504600F0D2FC494699
:100D2000DFF88C0800F0CDFC0FF2601B584600F095
:100D3000C8FC01A9484601F0FDFC00280ED140F294
:100D4000AA223900DFF8600800F0BBFCDFF8640875
:100D500000F0B7FC584600F0B4FC89E00020029097
:100D600002A9484601F054FC002817D0029870618F
:100D700040F2B2223900504600F0A3FC0299DFF89D
:100D8000380800F09EFC584600F09BFCDFF8F41792
:100D9000019801F043FD002836D10EE040F2B62262
:100DA0003900DFF8040800F08CFCDFF8100800F0D0
:100DB00088FC584600F085FC5AE003A9484601F03B
:100DC00067FC00280ED140F2BF223900DFF8D807B7
:100DD00000F077FCDFF8E80700F073FC584600F0FD
:100DE00070FC45E00398002839D040F2C522390054
:100DF000504600F066FC4946DFF8C80700F061FC89
:100E0000584600F05EFC33E0DFF87C17019801F0F3
:100E100005FD002822D1002000906946484601F0D7
:100E200079FC00281BD040F2CF223900504600F058
:100E300048FC0099DFF8900700F043FC584600F0AA
:100E400040FC009801F058FA032803D300993000C1
:100E5000FFF703FD009800F02EFC00E008E0002EF4
:100E600006D0DFF86837019AB1693000FFF79DFDC1
:100E7000019800F020FC40F2E3223900DFF8DC05A5
:100E800000F01FFC0BB0BDE8F08F00000A0000006E
:100E9000285D0108746B010804710108445D0108B4
:100EA000606401082DE9F64F87B004000D00DFF8FB
:100EB000207740F2EE223900DFF8E00600F001FC76
:100EC000002C00F0B580002D00F0B280059405984C
:100ED00041F238014658A8680490E86806900498E2
:100EE000002802D00698002807D140F2FA223900E3
:100EF000DFF8680500F0E5FB9AE0686940F602015A
:100F000088420ED340F2FF223900DFF89C0600F041
:100F1000D8FBDFF8980600F0D4FBA3A000F0D1FBCB
:100F20007FE0686940F60101884202D34FF400680F
:100F300001E0D5F8148018F10100039028690290AF
:100F4000DFF84896CA46039A0299504601F0A0FC81
:100F5000002009F80800DFF87CA640F207323900CB
:100F6000504600F0AEFB4946DFF86C0600F0A9FBE6
:100F70000FF2342B584600F0A4FB0020019001A989
:100F8000484601F045FB002818D0019870614FF4E5
:100F900045723900504600F094FB7169DFF83C0659
:100FA00000F08FFB584600F08CFB00200090694653
:100FB000484601F0D1FB00280FD128E04FF44472DD
:100FC0003900DFF8E40500F07CFBDFF8F00500F005
:100FD00078FB584600F075FB23E040F219323900E7
:100FE000504600F06EFB0099DFF8F40500F069FB55
:100FF000584600F066FB009801F07EF9032803D301
:1010000000993000FFF729FC009800F054FB002EF7
:1010100007D0DFF8B835DFF86825B1693000FFF791
:10102000C4FC40F226323900DFF8300400F049FBFE
:1010300009B0BDE8F08F0000F04E0108144F010820
:1010400034490108605D0108985601087C5D01087B
:10105000F1EF00202DE9F84304000E001500DFF841
:10106000847540F22E323900DFF8300500F029FB9C
:10107000002C02D17FF0010094E0002D02D17FF01E
:1010800001008FE05FF000085FF000092878002879
:1010900009D0022811D010D304285ED02FD30628FF
:1010A00044D015D364E0A7A081464B46DFF838252D
:1010B0003100200000F013FB6BE0DFF830058146C3
:1010C0004B46DFF82C253100200000F008FB60E0E3
:1010D000DFF81805814668688068002807D04B460D
:1010E000DFF80C253100200000F0F9FA06E04B464D
:1010F000DFF800253100200000F0F1FA49E0DFF8C8
:10110000F804814668688068002807D04B46DFF8FD
:10111000E0243100200000F0E2FA06E04B46DFF860
:10112000D4243100200000F0DAFA32E0DFF8C804FD
:10113000814668688068002807D04B46DFF8B024F5
:101140003100200000F0CBFA06E04B46DFF8A42483
:101150003100200000F0C3FA1BE0DFF89C04814658
:101160004B46DFF898243100200000F0B8FA10E078
:1011700040F26B323900DFF8300400F0A2FADFF8F9
:10118000800400F09EFA08A000F09BFA7FF00100B6
:10119000804643464FF45C723900DFF8680400F083
:1011A00090FA4046BDE8F2830A000000985D01080D
:1011B000B45D01081C4501082DE9F34F85B0060018
:1011C0001700DFF844B44FF45E725946DFF8CC03E1
:1011D00000F077FA002E02D17FF00100AFE05FF05F
:1011E000000A00200490300001F086F88046DDF807
:1011F0001890B9EB080902A8DFF81014D1E9002310
:10120000C0E900233878002809D1534640F28532DE
:101210005946DFF8F00300F054FA50468FE0387872
:10122000042816D102AB8CA2494606EB080000F058
:1012300056FA05004946280001F08CF80400230006
:101240004FF463725946DFF8BC0300F03AFA20000D
:1012500075E078688068002869D0002400250121A5
:10126000786800F0DEFA0190002819D17FF00100C3
:1012700000904FF466725946CB4800F022FADFF82E
:10128000900300F01EFABBA000F01BFA009B40F296
:1012900099325946DFF86C0300F013FA00984EE0DB
:1012A000019800F0DDFA0400002C03D1019800F051
:1012B000E3FA3CE0A0680500002D0CD140F2A63214
:1012C0005946B94800F0FDF9D24800F0FAF9A9A052
:1012D00000F0F7F9E4E7286800281FD038780128E3
:1012E00005D03878022802D03878052808D1287A25
:1012F00000906B682A684946300001F059F80DE00B
:101300003878032802D03878062807D109200090C1
:1013100000232A684946300001F04AF8300000F006
:10132000EBFF80460698B0EB08008146B8E75346CD
:1013300040F2BF325946B34800F0C3F9504607B0F7
:10134000BDE8F08F67657400D05D01081471010875
:101350002DE9F84F05000C0016001F005FF0000B90
:101360005FF00009002C02D17FF0010072E0200044
:1013700000F0C2FF8246B6EB0A0ABAF1020F02D2AF
:101380007FF0850066E03878002809D002281CD05C
:1013900041D304280ED03ED3062821D020D346E0E6
:1013A000200000F0A9FF74A25146204400F097F9F4
:1013B00081464BE0200000F09FFF6B69964A514642
:1013C000204400F08CF9814640E0200000F094FFBA
:1013D000924A51462044401E00F081F9814635E092
:1013E0007868806800280BD0200000F085FF6B69CA
:1013F0008B4A51462044401E00F071F9814609E0B5
:10140000200000F079FF6B69864A5146204400F0C5
:1014100066F981461AE0200000F06EFF6B69824A8F
:1014200051462044401E00F05AF981460EE07FF0FC
:101430000100804640F2F2327C495B4800F041F9FD
:101440007B4800F03EF94BA000F03BF9514648467E
:1014500000F080FFBDE8F28F25730000786401087A
:1014600024710108906401082DE9F04106000F0085
:10147000DFF8C08140F2FF324146484800F021F9D0
:10148000F06800F0F1F8B06980680A280DD3F068C0
:1014900000F0FFF87FF08804230040F20542414647
:1014A000584800F00EF9200062E0142000F0FDF82A
:1014B0000400002C19D1F06800F0EBF840F20C4267
:1014C0004146394800F0FDF85B4800F0FAF829A0E1
:1014D00000F0F7F85FF0FF3340F20D424146494813
:1014E00000F0EFF85FF0FF3042E0F86820617868C4
:1014F00060603869A0603878207014F10C0001F049
:10150000B2F9B96814F10C0001F09FF9200000F065
:10151000BAF90500002D1CD1F06800F0BAF840F2CD
:101520001C424146204800F0CCF8444800F0C9F87D
:1015300010A000F0C6F8200000F0BDF85FF0FF3307
:1015400040F21E4241462F4800F0BBF85FF0FF30EA
:101550000EE02900B06900F0EEF8F06800F099F8AC
:10156000002340F225424146264800F0AAF8002018
:10157000BDE8F0810A0000007D000000EC5D01087C
:10158000A4730108347501083C75010878DA00205D
:1015900048450108384F0108A86401083064010873
:1015A000750B0008B8560108F4700108D83C010812
:1015B000085E0108245E0108886B0108405E01088E
:1015C000C06401085C4F0108B0730108810A00087B
:1015D0009C6B0108746B01083471010844710108A7
:1015E000B06B0108C46B010854710108447501080F
:1015F0005C4901085C5E01084C750108804F0108D8
:10160000D86B01080C490108D86401085475010819
:10161000785601080C5D010864710108EC6B010843
:10162000D8560108F8560108006C0108F06401085A
:10163000146C0108785E0108185701083857010832
:1016400080B5012001F027FA0100002901D1002016
:1016500000E0080002BD38B50400002C03D02500CE
:10166000280001F0DFFB31BD70B50400002C0FD065
:1016700026005FF0FF31300001F0F8FA0500012D7F
:1016800006D05FF0FF31300001F0F0FA0500F6E718
:1016900070BD38B50400002C06D0250000230022C0
:1016A0000021280001F007FA31BD10B50400200028
:1016B00001F092FC10BD10B50400200001F022FDE5
:1016C00010BD0EB430B5040003AD2900200001F0B8
:1016D000C7FD0D4801F012FE30BC5DF810FB08B4E8
:1016E000F0B504000D00160005AF3B0032002900E4
:1016F000200001F01FFEF0BC5DF808FB10B50400EF
:10170000200001F021FF10BD3C01002080B5142015
:10171000FFF7CBFF0100002901D100200AE00020E3
:101720000860002048600020C86000200861002098
:101730008860080002BD0200002901D1002015E0E8
:101740009068002807D05068086000204860506802
:101750004160516006E051605068106000204860B0
:10176000486808609068401C906008007047F8B5B1
:1017700005000E000021280000F053F807000028A3
:1017800001D1002024E0380000F06AF80400002CA9
:101790001AD0286900280AD0A16830002A69904729
:1017A00000280CD0380000F067F8200010E0A06896
:1017B000864204D1380000F05FF8200008E03800CD
:1017C00000F04EF80400E2E7380000F055F8002081
:1017D000F2BD38B504000D002868002805D06868FF
:1017E000296848602868406802E0686820602068CE
:1017F0006868002805D0286869680860686800681B
:1018000002E0286860606068E068002802D0A8688C
:10181000E16888472800FFF74EFFA068401EA060DF
:1018200031BD70B504000D002800C0B2002801D100
:10183000266800E066682900C9B2300000F001F8AF
:1018400070BD38B504000D000820FFF72EFF010021
:10185000002901D1002002E00C600D71080032BDAA
:1018600002001068002806D01179002901D14168D2
:1018700000E001681160704710B504002000FFF718
:101880001AFF002010BD10B504000C20FFF70DFF5B
:101890000100002901D1002005E00020086000209F
:1018A00048608C60080010BD2DE9F84306000F0069
:1018B0009046DFF848931E224946DFF84403FFF7BD
:1018C00000FF0820FFF7F1FE0500002D17D12322AD
:1018D0004946DFF83003FFF7F4FEDFF82C03FFF78B
:1018E000F0FE84A0FFF7EDFE5FF0FF3324224946AF
:1018F000DFF81803FFF7E5FE5FF0FF302BE0C5F8D7
:1019000004802F602800FFF7BEFF0400002C17D1D1
:101910002D224946DFF8EC02FFF7D3FEDFF8F00294
:10192000FFF7CFFE73A0FFF7CCFE5FF0FF332E2250
:101930004946DFF8D802FFF7C4FE5FF0FF300AE047
:101940002100F069FFF7F7FE002332224946AF4835
:10195000FFF7B7FE0020BDE8F2832DE9F84F050040
:101960000C00AC4E37223100A548FFF7AAFE002C30
:1019700002D17FF001002CE0002D02D17FF00100A8
:1019800027E00027A146D9F800A0AB46402231004D
:10199000A148FFF796FEDBF80020DAF800109F4818
:1019A000FFF78FFE53A0FFF78CFEDBF80010DAF88C
:1019B000000000F033FF002802D15FF0010801E0D1
:1019C0005FF0000843464B2231009048FFF779FE54
:1019D0004046BDE8F28FF8B505000E00904F50224A
:1019E00039008748FFF76DFE2869FFF73DFE31009B
:1019F000E869FFF7BCFE04002869FFF74AFE002CE7
:101A000001D0012300E00023DBB2582239007F48D7
:101A1000FFF757FE002C01D0012000E00020C0B2EB
:101A2000F2BD2DE9F84F05000E001700DFF8F48134
:101A30005D2241467248FFF744FE5FF000095FF007
:101A4000000A5FF0000B2869FFF70EFE3100E8691D
:101A5000FFF78DFE0400002C0ED17FF0C9008146F7
:101A6000692241466748FFF72CFE6F48FFF729FEC1
:101A700020A0FFF726FE31E0A0688246DAF80000D9
:101A800083463800C0B2012807D03800C0B205280C
:101A900003D03800C0B2022803D17068CBF804002C
:101AA0001CE03800C0B2032803D03800C0B20628BA
:101AB00006D15E48FFF705FE0020CBF804000DE0DC
:101AC0007A2241464F48FFF7FCFD5948FFF7F9FDE0
:101AD00008A0FFF7F6FD7FF0010081462869FFF7B7
:101AE000D8FD4B46802241464848FFF7EAFD48466C
:101AF000BDE8F28F0A0000002DE9F04105000C005E
:101B000016004C4F9D2239003D48FFF7DAFD002DAD
:101B100002D17FF0010029E03000002802D17FF0DF
:101B2000010023E0002C02D17FF001001EE02068BC
:101B3000002802D17FF0010018E06068002802D17F
:101B40007FF0010012E02869FFF78EFD32002100CE
:101B50002800FFF7A9FE80462869FFF79AFD434653
:101B6000AB2239002948FFF7ACFD4046BDE8F081C3
:101B70002DE9F04106000D002F4FB022390020481A
:101B8000FFF79FFD002E02D17FF0010032E0002D13
:101B900002D17FF001002DE02868002802D17FF0FB
:101BA000010027E05FF000082800FFF76CFE04004A
:101BB000002C14D1BB2239001248FFF782FD1448D3
:101BC000FFF77FFD0CA0FFF77CFD5FF0FF33BC2229
:101BD00039000E48FFF775FD5FF0FF300AE0210085
:101BE0007068FFF7A8FD4346C02239000748FFF799
:101BF00068FD4046BDE8F0810A000000F855010884
:101C0000D063010894700108185601086C48010857
:101C1000385601083C4E0108246B010810420108A7
:101C20009448010858560108BC480108386B01085F
:101C3000A470010898440108604E010862F30F2265
:101C400062F31F42401810F0030308D0C91A1FD3D3
:101C5000DB0748BF00F8012D28BF20F8022D130034
:101C600030B414461546103928BF20E93C00FAD894
:101C7000490728BF20E90C0048BF40F8042D89001F
:101C800028BF20F8022D48BF00F8012D30BC704756
:101C9000C91818BF00F8012DCB0728BF00F8012D87
:101CA0007047F0B40246106895681318506803EB4B
:101CB0005004C0071DD54D441BE013F8017B05F807
:101CC000017B491EF9D1A0B1B60813F8011B06F03B
:101CD0000306032E08BF13F8016B01EB06214942EE
:101CE000801C294405D011F8016B05F8016B401EDA
:101CF000F9D1A3420ED013F8016B16F0030104BF13
:101D000013F8011BC91C30090F28DAD113F8010B95
:101D10000F30D6E7F0BC02F10C0070472DE9F04718
:101D200088B00500002D01D1002032E1286800288C
:101D300001D100202DE1286800F0DEFA002801D151
:101D4000002026E16868002801D1002021E16868B0
:101D500000F0D2FA002801D100201AE100244FF44B
:101D60008950FFF7A2FC0600002E0FD14A22DFF8AF
:101D7000F014DFF8F004FFF7A4FCDFF8EC04FFF741
:101D8000A0FC85A0FFF79DFC002002E129003000A7
:101D900000F036F90400002C0FD05022DFF8C014F8
:101DA000DFF8C004FFF78DFC2100DFF8C004FFF767
:101DB00088FC79A0FFF785FCE7E002A8DFF8B01403
:101DC000182200F075FD286800F096FA0700686890
:101DD00000F092FAC719BF1C3800FFF766FC0290AA
:101DE000029800280FD15822DFF87414DFF8740429
:101DF000FFF767FC2100DFF87C04FFF762FC66A0B8
:101E0000FFF75FFCC1E0286800F076FA804668685A
:101E100000F072FA10EB080818F104084046FFF7CA
:101E200044FC03900398002812D15E22DFF830149E
:101E3000DFF83004FFF745FC2100DFF83C04FFF732
:101E400040FC55A0FFF73DFC0298FFF734FC9CE0F6
:101E50005FF00009E86800282AD102208146A868BE
:101E600000F04AFA82461AF1010A5046FFF71DFCBB
:101E700004900498002815D16C22DFF8E413DFF8F1
:101E8000E403FFF71EFC2100DFF8F003FFF719FC65
:101E900041A0FFF716FC0398FFF70DFC0298FFF72F
:101EA0000AFC72E0AB683DA251460498FFF717FCAC
:101EB000E86800282AD001208146E86800F01CFA72
:101EC00082461AF1010A5046FFF7EFFB049004988E
:101ED000002815D17B22DFF88813DFF88803FFF78D
:101EE000F0FB2100DFF89803FFF7EBFB2AA0FFF7D8
:101EF000E8FB0398FFF7DFFB0298FFF7DCFB44E009
:101F0000EB6826A251460498FFF7E9FB6868009049
:101F10002B68DFF8702339000298FFF7E0FBCDF85B
:101F20000490686800902B68DFF85C2341460398B2
:101F3000FFF7D5FB6869ADF81A00287E8DF81C0004
:101F4000687E8DF81D0002A9300002F098F90400A7
:101F5000002C18D08B22DFF80813DFF80803FFF7F6
:101F6000B0FB2100DFF82403FFF7ABFB0AA0FFF76B
:101F7000A8FB0398FFF79FFB0298FFF79CFB0498D0
:101F8000FFF799FB01E0300003E03000FFF793FB1F
:101F9000002008B0BDE8F0870A00000025730000AB
:101FA00070B504000D0026002900300002F043FB4C
:101FB00070BDF8B504000D0016002700320029009E
:101FC000380002F04FFFF2BDF8B504000D00160016
:101FD000270032002900380003F08CF8F2BD38B534
:101FE0000400002C01D1012009E02500280004F0A4
:101FF000FDFA012801D1012000E00020C0B232BD6D
:102000002DE9FC4704000D00002C02D17FF00100F7
:1020100020E1002D02D17FF001001BE14FF4895730
:102020005FF000082600424639003000FFF706FE48
:10203000DFF85C92974B88A240214846FFF74FFBA0
:102040000600002E01D4402E02DB5FF0FF3001E1DC
:102050002869B0F5FA7F02D24FF4FA702861286936
:102060004CF25131884202D34CF250302861286939
:10207000A0600120A0804FF400606061A06115F1B4
:102080001C02D2E9000141F234022244C2E90001FB
:1020900041F21C07FFF7D4FAE051E059002802D1C1
:1020A0005FF0FF30D6E00021200004F092FAFFF745
:1020B000C7FA4FF4815844F8080000280CD140F2C8
:1020C000811275496748FFF7FCFA7448FFF7F9FA7F
:1020D00062A0FFF7F6FA76E0FFF7B2FA41F22801C4
:1020E000605000280CD140F285126B495D48FFF723
:1020F000E8FA6B48FFF7E5FA58A0FFF7E2FA62E06A
:10210000FFF79EFA41F22401605000280CD140F202
:10211000891261495348FFF7D4FA6248FFF7D1FAB0
:102120004EA0FFF7CEFA4EE0FFF7F0FA41F22C0195
:10213000605000280CD14FF4C77257494948FFF747
:10214000C0FA5948FFF7BDFA44A0FFF7BAFA3AE0DF
:10215000DFF858A16058C0F80CA0FFF7D7FA41F299
:102160003001605000280CD14FF4CA724A493D48F2
:10217000FFF7A7FA4E48FFF7A4FA38A0FFF7A1FA35
:1021800021E06058C0F80CA041F2540044F80090DF
:1021900041F25801474A126862520022009214F537
:1021A00083521388625A2158204404F0F3FA41F212
:1021B0007800204400F057FB41F27C00204400F0FE
:1021C00052FB002046E041F22C0954F80900002897
:1021D00008D054F8090054F80910C968884700204D
:1021E00044F8090041F2300954F80900002808D0E9
:1021F00054F8090054F80910C9688847002044F8C9
:102200000900E059002804D0E059FFF724FA002023
:10221000E05141F22807E059002804D0E059FFF7C7
:102220001AFA0020E05141F22407E059002804D0B6
:10223000E059FFF710FA0020E05154F80800002898
:1022400006D054F80800FFF706FA002044F808000A
:102250005FF0FF30BDE8F687257300000A0000003C
:102260007C680108E46E0108A45A0108E8600108CE
:1022700000610108C05A0108DC5A0108B04C01088D
:10228000F85A0108B474010808730108145B0108C6
:10229000ACED0020305B0108F46E010858530108D2
:1022A0007853010898530108B8530108B71600087D
:1022B000D8530108E8000020002204F07FBA30B4AF
:1022C000002513E050F8042BD30744BFA9F1010304
:1022D0009A18091F042942F8045BFAD213468C07A6
:1022E00044BF15809B1CC90748BF1D7050F8041BD4
:1022F0000029E7D130BC704700F10103810704D009
:1023000010F8011B820781B1FAD10268A2F10131F4
:10231000914311F0803104BF50F8042FF6E709BA59
:10232000B1FA81F100EBD100401CC01A7047B1F541
:10233000807F02D34FF0FF3070470170012070475B
:102340000A780260087800E00078401E8041C043AF
:10235000C00F7047F8B504000D00DFF8646429224F
:102360003100DFF86004FFF7ACF9AC420AD37FF02C
:1023700084073B002D223100DFF84C04FFF7A1F960
:10238000380014E0002C0AD57FF086073B0031228C
:102390003100DFF83404FFF794F9380007E0002338
:1023A00034223100DFF82004FFF78BF90020F2BD62
:1023B0002DE9F74F82B007001C000E9EDFF80C8459
:1023C00039224146DFF8FC03FFF77BF90498002827
:1023D00002D17FF0010018E15FF0000A0025DDF86E
:1023E0000CB03800FFF788FFBBEB000BBBF1020F0E
:1023F0000AD27FF085052B0043224146DFF8C8034F
:10240000FFF75FF9280000E13800FFF775FF049B34
:10241000DFF8BC2359463844FFF761F98146594635
:102420004846FFF797FF0500002D08D02B004A22F1
:102430004146DFF89403FFF744F92800E5E0DDF8B2
:102440000CA03800FFF758FFBAEB000ABAF1020FF0
:102450000AD27FF0850B5B464F224146DFF86803C6
:10246000FFF72FF95846D0E0002C0AD13800FFF7CB
:1024700043FFDFF8602351463844FFF730F98146C7
:10248000B7E03000C0B200280AD13800FFF734FFAF
:1024900023689FA251463844FFF721F98146A8E0FE
:1024A0003000C0B201280CD13800FFF725FFB4F985
:1024B0000030DFF8242351463844FFF710F98146F5
:1024C00097E03000C0B202280CD13800FFF714FFAB
:1024D00094F90030DFF8042351463844FFF7FFF841
:1024E000814686E03000C0B203280AD13800FFF7E9
:1024F00003FF236897A251463844FFF7F0F881465E
:1025000077E03000C0B204280AD13800FFF7F4FEAB
:102510002388B34A51463844FFF7E1F8814668E022
:102520003000C0B205280AD13800FFF7E5FE237855
:10253000AC4A51463844FFF7D2F8814659E03000A2
:10254000C0B207280DD13800FFF7D6FE94ED000B7E
:102550008DED000B88A251463844FFF7C0F8814644
:1025600047E03000C0B206280FD13800FFF7C4FEA4
:1025700094ED000AB7EEC00A8DED000B7EA2514625
:102580003844FFF7ACF8814633E03000C0B2082889
:1025900012D12078002802D05FF0010B01E05FF03B
:1025A000000B3800FFF7A8FE5B466AA2514638448C
:1025B000FFF795F881461CE03000C0B209280AD127
:1025C0003800FFF799FE2300874A51463844FFF749
:1025D00086F881460DE03000C0B20A2809D13800E3
:1025E000FFF78AFE230073A251463844FFF777F8BD
:1025F000814651464846FFF7ADFE83465B467D2245
:1026000041467148FFF75DF8584605B0BDE8F08FC8
:102610002DE9F04105000E00744F8222390069480F
:10262000FFF74FF85FF000082900714804F0E0F868
:102630000400002C07D10023872239006248FFF7ED
:1026400040F8002022E032005BA1200004F0D0F925
:1026500001280DD08B2239006648FFF732F87FF051
:1026600083016548FFF72DF854A0FFF72AF801E031
:10267000012080462000FFF71EF84346DBB294227B
:1026800039005148FFF71DF84046C0B2BDE8F0815F
:102690002DE9F04105000E00584F992239004948B4
:1026A000FFF70FF85FF000082900554804F0A0F884
:1026B0000400002C07D100239E2239004248FFF776
:1026C00000F8002022E032003BA1200004F090F945
:1026D00001280DD0A22239004648FEF7F2FF7FF014
:1026E00083014848FEF7EDFF34A0FEF7EAFF01E062
:1026F000012080462000FEF7DEFF4346DBB2AA221F
:1027000039003148FEF7DDFF4046C0B2BDE8F08138
:1027100025692C0038B504000D0021003A4804F06A
:1027200067F828602868002801D0012000E0002018
:10273000C0B232BD38B504000D002100334804F0AA
:1027400057F828602868002801D0012000E0002008
:10275000C0B232BD25752C0038B504000D00210033
:102760002B4804F045F828602868002801D0012093
:1027700000E00020C0B232BD25662C0070B5050017
:102780000E002900306804F033F80400002C0DD04E
:1027900004222049200004F03FF9002806D004223A
:1027A0001D49200004F038F9002801D1002000E084
:1027B000200070BD25732C00257500000A00000064
:1027C000E863010800640108E4480108B4700108E6
:1027D000DC740108E4740108EC740108F474010865
:1027E000FC740108047501080C7501084C6B0108A4
:1027F00014750108C4700108C4440108844E01081E
:10280000D4700108A84E0108186401081C7501085D
:10281000E4700108247501082C75010810F8012BDB
:1028200011F8013B0AB19A42F8D0D01A704710B59E
:102830000400200004F004F910BD38B504000D00B8
:102840002900200004F008F931BD38B504000D005E
:102850002900200004F00BF931BD10B50400200060
:1028600004F014F910BD10B50400200004F016F9AE
:1028700010BD03681AB95A1E0260084670471978DD
:1028800011B94FF0FF307047591C0160187870473C
:1028900062B38B0708D0521E11F8013B00F8013BD0
:1028A00000F024808B07F6D1830740F0208000BF22
:1028B000103A07D330B4B1E83810103AA0E8381015
:1028C000F9D230BC530724BFB1E80810A0E80810C3
:1028D00044BF51F8043B40F8043BD20724BF31F811
:1028E000022B20F8022B44BF0B7803707047121F95
:1028F00017D35B0009D151F8043B20F8023B1B0CB5
:10290000121F20F8023BF6D20BE051F8043B00F80E
:10291000013B1B0A20F8023B1B0C121F00F8013B75
:10292000F3D238BF121D521E24BF11F8013B00F82C
:10293000013BF8D870478268521C8260426832B10D
:102940000268531C036011704168491E4160704762
:1029500070B506000C003500002D09D172B650206C
:1029600080F31188BFF34F8FBFF36F8F62B6FEE71E
:1029700004F015F92968EA6B286C424301EB020068
:1029800068600020A8632868A8602968EA6B521E66
:10299000286C424301EB0200E8605FF0FF3085F8ED
:1029A000440085F84500002C12D12869002817D072
:1029B00015F1100000F086FF002811D05FF0805064
:1029C000DFF85C140860BFF34F8FBFF36F8F07E031
:1029D00015F1100004F058F915F1240004F054F931
:1029E00004F0FBF8012070BD2DE9F84306000D004E
:1029F0001700002E09D172B6502080F31188BFF362
:102A00004F8FBFF36F8F62B6FEE7002D02D15FF0EC
:102A1000000801E005FB06F818F1480000F0DCFAB8
:102A20000400002C0AD014F14800814600943B00B9
:102A3000DBB24A462900300000F003F82000BDE870
:102A4000F2832DE9F04105000C0016001F00DDF8AF
:102A50001880002C02D1C8F8008001E0C8F800609E
:102A6000C8F83C50C8F8404001214046FFF770FFCD
:102A7000BDE8F08110B50400002C0BD00020606090
:102A8000002020600020E0600023002200212000C0
:102A900000F011F810BDF8B504000126002722004F
:102AA000D2B239003000FFF79FFF05002800FFF782
:102AB000E1FF2800F2BD2DE9F74380460D0099465D
:102AC00000244646002E09D172B6502080F31188AA
:102AD000BFF34F8FBFF36F8F62B6FEE7002D02D1B9
:102AE000306C002801D1012000E00020C0B2002895
:102AF00009D172B6502080F31188BFF34F8FBFF316
:102B00006F8F62B6FEE7B9F1020F02D1F06B0128B8
:102B100001D1012000E00020C0B2002809D172B626
:102B2000502080F31188BFF34F8FBFF36F8F62B6D1
:102B3000FEE700F0E8FF002802D10298002801D14A
:102B4000012000E00020C0B2002809D172B6502058
:102B500080F31188BFF34F8FBFF36F8F62B6FEE72C
:102B600004F01DF8B06BF16B884202D3B9F1020F8B
:102B700027D14A462900300000F075F90700706A35
:102B800000280FD016F1240000F09CFE002814D07D
:102B90005FF08050DFF888120860BFF34F8FBFF3FB
:102BA0006F8F0AE0002F08D05FF08050DFF87012BE
:102BB0000860BFF34F8FBFF36F8F04F00EF8012052
:102BC00052E00298002803D104F007F800204BE0FF
:102BD000002C04D1684600F0B5FE0120040003F08B
:102BE000FCFF00F012FD03F0DAFF96F9440010F14B
:102BF000010F02D1002086F8440096F9450010F13B
:102C0000010F02D1002086F8450003F0E6FF02A97B
:102C1000684600F0ADFE002820D1300000F0B6F983
:102C2000002815D0029916F1100000F02FFE300098
:102C300000F067F900F0EFFC002891D15FF08050C0
:102C4000DFF8DC110860BFF34F8FBFF36F8F87E7AA
:102C5000300000F056F900F0DEFC81E7300000F0B3
:102C600050F900F0D8FC0020BDE8FE832DE9F341C7
:102C700082B08046002447460025002F09D172B655
:102C8000502080F31188BFF34F8FBFF36F8F62B670
:102C9000FEE7386C002809D072B6502080F3118806
:102CA000BFF34F8FBFF36F8F62B6FEE700F02BFFCD
:102CB000002802D10398002801D1012000E0002063
:102CC000C0B2002809D172B6502080F31188BFF33A
:102CD0004F8FBFF36F8F62B6FEE703F060FFBE6BEE
:102CE000002E1CD0701EB8633868002802D101F095
:102CF00056F87860386900280DD017F1100000F000
:102D0000E1FD002807D05FF0805045490860BFF31F
:102D10004F8FBFF36F8F03F060FF01207CE00398BB
:102D200000280FD1002D09D072B6502080F31188F1
:102D3000BFF34F8FBFF36F8F62B6FEE703F04DFF17
:102D4000002069E0002C04D1684600F0FBFD012062
:102D5000040003F042FF00F058FC03F020FF97F955
:102D6000440010F1010F02D1002087F8440097F9C8
:102D7000450010F1010F02D1002087F8450003F053
:102D80002CFF03A9684600F0F3FD00282AD1380083
:102D900000F0EEF800281FD03868002807D103F0B3
:102DA000FEFE786800F0C2FE050003F016FF0399EE
:102DB00017F1240000F06AFD380000F0A2F800F0DE
:102DC0002AFC002889D15FF0805015490860BFF3C4
:102DD0004F8FBFF36F8F80E7380000F092F800F05C
:102DE0001AFC7AE7380000F08CF800F014FC380088
:102DF00000F0BEF800283FF470AF002D0BD003F0B8
:102E0000CEFE380000F024F806003100786800F0AB
:102E10004BFF03F0E2FE002004B0BDE8F0810000AB
:102E200004ED00E038B505002C00002C09D172B685
:102E3000502080F31188BFF34F8FBFF36F8F62B6BE
:102E4000FEE7200000F0B1F8200000F05BF931BD92
:102E50000100486A002804D0086B0068D0F1070020
:102E600000E0002070472DE9F84F06000F00140025
:102E70005FF00008B56B306C002809D1306800287D
:102E80003AD1706800F0AFFE80460020706033E0F9
:102E9000002C14D1D6F84090BA46D6F808B04A466D
:102EA00051465846FFF7F4FCB068316C0844B060F6
:102EB000B068716888421FD33068B0601CE0D6F8F3
:102EC0004090BA46D6F80CB04A4651465846FFF7ED
:102ED000DFFCF068316C49420844F060F06831680A
:102EE000884204D27068316C49420844F060022C78
:102EF00002D1002D00D06D1E681CB0634046BDE8B5
:102F0000F28FF8B5040003F04AFE94F9455028000A
:102F100040B201280CDB606A002809D014F12400BB
:102F200000F0D0FC002801D000F06DFD6D1EEEE732
:102F30005FF0FF3684F8456003F04FFE03F02FFE8C
:102F400094F94470380040B201280CDB2069002855
:102F500009D014F1100000F0B5FC002801D000F0F9
:102F600052FD7F1EEEE784F8446003F036FEF1BDAB
:102F700038B5040003F013FEA06B002801D1012531
:102F800000E0002503F029FE280032BD38B504001A
:102F900003F005FEA06BE16B884201D1012500E042
:102FA000002503F01AFE280032BD002108290FD2A7
:102FB000084A02EBC1035B68834207D1002342F851
:102FC0003130002302EBC102536001E0491CEDE700
:102FD00070470000ECED00202DE9F84F04005FF091
:102FE000000800F012FBDFF85C92D9F8000000281E
:102FF00001D100F0C5F8DFF850A2DAF80000044271
:103000006DD1002C17D091480068041914F0070FF7
:1030100011D014F1080014F00704041B14F0070F7A
:1030200009D072B6502080F31188BFF34F8FBFF3E1
:103030006F8F62B6FEE7002C51D0DFF814B2DBF8D8
:103040000000A0424BD38348060000680500686872
:10305000A04205D22868002802D02E002D68F6E78D
:10306000D9F8000085423AD07848316802681144A6
:10307000884629683160006840006968091B8842F9
:1030800017D205EB0400070017F00700002809D04D
:1030900072B6502080F31188BFF34F8FBFF36F8F4C
:1030A00062B6FEE76868001B78606C60380000F06C
:1030B00098F8DBF800106868091ACBF80010664829
:1030C000DBF800100268914202D2DBF800100160C8
:1030D0006968DAF80000014369600020286000F0A8
:1030E0009AFA18F00700002809D072B6502080F331
:1030F0001188BFF34F8FBFF36F8F62B6FEE7404674
:10310000BDE8F28F70B504002600002C37D04F4880
:1031100000684042064435004B4968680A6810421E
:1031200009D172B6502080F31188BFF34F8FBFF3DF
:103130006F8F62B6FEE72868002809D072B650206B
:1031400080F31188BFF34F8FBFF36F8F62B6FEE736
:1031500068680A68104212D0286800280FD16A688F
:10316000086882436A6000F050FA39490A68686862
:1031700082180A60280000F034F800F04CFA70BDA4
:1031800070B44FF4F0423548010011F0070F04D03D
:10319000C91DC908C900521A82180B002D480360C6
:1031A00000244460D41829480068241AE408E40084
:1031B000244D2C6000202E68706000202E68306046
:1031C0001800261A46602D6805604568224E356055
:1031D00045681F4E35605FF000451B4E356070BC82
:1031E000704730B41B4A1168814201D21268FAE775
:1031F000140051682144814204D153684168CB18BE
:10320000536010000300416819441568A94210D1A9
:103210000C4914680D68AC4208D0446811684968CC
:103220000C19446011680968016004E009680160D4
:1032300001E011680160824200D0106030BC70472C
:10324000000000008CEF002098EF0020947501082A
:1032500090EF00207CEF002094EF00207802002007
:103260000EB4C0B5024603A800210190009101AB45
:103270000121044878440C3003F054FD06BC5DF88D
:1032800010FB00BF2D33010070B50546AFF3008081
:103290002888810415D56E680024EA6895F9030032
:1032A0003146914212D2521A04F0DFFC10F1010FA4
:1032B0001CBF00283618F0D10FE04DF6FF7001401A
:1032C00029802846AFF30080002070BD0022002135
:1032D00004F0CBFC10F1010F00D101246868E86014
:1032E000A861E861002C2988E7D041F400712980A9
:1032F0002846AFF300804FF0FF3070BDF8B5A0B99D
:10330000AFF3008000250A4E08244FF0FF373068E5
:1033100020B1FFF7B9FF002848BF3D46361D641EA7
:10332000F5D1AFF300802846F2BDBDE8F240ABE72F
:10333000CC01002008B584B00023039300290EBF00
:1033400001930190491E0291009301A904AB074823
:103350007844183003F0E6FC019909B100220A70A4
:10336000002858BF039805B000BD00BFCBF5FFFF94
:103370002DE9F84F84B006000F0090469946DDF81D
:1033800038A0DDF83CB0404680B28000FFF724FE54
:103390000500002D0BD05420FFF71EFE0400002C6A
:1033A00001D0256304E02800FFF7ACFE00E0002414
:1033B000002C12D0002003900294CDF804B0CDF878
:1033C00000A04B46424692B23900300000F00AF8A5
:1033D000200000F06CF8012001E05FF0FF3005B044
:1033E000BDE8F08F2DE9F84F05000E001700984654
:1033F000DDF828900B9CDDF830A0DAF8300000EB07
:103400008700001FC008C0000090009810F0070F50
:1034100009D072B6502080F31188BFF34F8FBFF3ED
:103420006F8F62B6FEE75FF0000BBBF1100F0CD29E
:1034300016F80B000AEB0B0181F8340016F80B00AC
:10344000002802D01BF1010BEFE700208AF84300AF
:10345000B9F1070F01D306208146CAF82C90CAF8AB
:1034600044900020CAF848001AF1040003F01BFC45
:103470001AF1180003F017FCCAF810A0D9F10700E0
:10348000CAF81800CAF824A00020CAF84C0000208E
:103490008AF8500042462900009803F003FBCAF85E
:1034A0000000002C01D0C4F800A0BDE8F18F38B5B1
:1034B000040003F074FBDFF8A0140868401C0860E7
:1034C000DFF898542868002806D12C600868012885
:1034D0000DD100F0AFFA0AE0DFF88404006800289C
:1034E00005D1E06A2968C96A884200D32C60DFF8F8
:1034F00074040168491C0160DFF86C140A68012338
:10350000E06A83401A430A60211DDFF86024E36A01
:103510001420434302EB030003F0C8FB03F05DFB00
:10352000DFF83C04006800280DD02868C06AE16A12
:10353000884208D25FF08050DFF8EC150860BFF3D6
:103540004F8FBFF36F8F31BD38B505000024002DBC
:1035500017D0DFF834050068002809D072B6502073
:1035600080F31188BFF34F8FBFF36F8F62B6FEE712
:1035700000F04BF80021280000F032FC00F04BF87E
:103580000400002C08D15FF08050DFF814170860A9
:10359000BFF34F8FBFF36F8F31BD1CB5DFF8180835
:1035A00001900020009000238022DFF810180FF215
:1035B0006140FFF7DDFE0400012C18D172B65020E7
:1035C00080F31188BFF34F8FBFF36F8F62B65FF048
:1035D000FF30DFF8EC1708600120DFF88413086083
:1035E0000020DFF8E017086003F089FA0CE014F11E
:1035F000010F09D172B6502080F31188BFF34F8FAD
:10360000BFF36F8F62B6FEE713BDDFF87C0401687D
:10361000491C01607047F8B500250026DFF86844B2
:103620002068002809D172B6502080F31188BFF3BA
:103630004F8FBFF36F8F62B6FEE703F0B0FA2068DA
:10364000401E20602068002857D1DFF80C03006876
:10365000002852D0DFF85C170868002827D0C86817
:10366000C068050015F1180003F047FB281D03F0A2
:1036700044FBDFF8F4120A680123E86A83401A4326
:103680000A60291DDFF8E422EB6A1420434302EBB1
:10369000030003F00BFBE86ADFF8C0120968C96A8F
:1036A0008842D7D30120DFF824170860D2E7002D25
:1036B00001D000F013FADFF810773C68002C0CD032
:1036C00000F023F8002803D00120DFF8001708607D
:1036D000641E002CF4D100203860DFF8F00600688A
:1036E00000280AD0012006005FF08050DFF8B015F6
:1036F0000860BFF34F8FBFF36F8F03F06EFA300097
:10370000F2BDDFF8C006006870472DE9F0410027E0
:10371000DFF874030068002870D1DFF8A806046899
:10372000641C0460002C1ED1DFF8A4160868006831
:10373000002809D072B6502080F31188BFF34F8F54
:10374000BFF36F8F62B6FEE7D1F80080DFF8840622
:1037500002680A60C0F80080DFF87C060168491C36
:10376000016000F0BBF9DFF85886D8F80000844209
:1037700038D3DFF85C1608680068002804D15FF0D1
:10378000FF30C8F800002DE00868C068C068050078
:1037900068680600B44202D2C8F8006022E0281D22
:1037A00003F0ABFAA86A002803D015F1180003F063
:1037B000A4FA6D490A680123E86A83401A430A6043
:1037C000291D6A4AEB6A1420434302EB030003F00D
:1037D0006DFAE86A61490968C96A8842C9D301205B
:1037E0000700C6E75D4800686049C26A142042438A
:1037F0008858022807D30120070004E0DFF8C80535
:103800000168491C0160DFF8C4050068002801D088
:10381000012007003800BDE8F081DFF86C02006885
:10382000002804D00120DFF8A41508602DE0002056
:10383000DFF8981508604C480068B0FA80F1D1F1C3
:103840001F011422494B02FB01F01858002809D12E
:1038500072B6502080F31188BFF34F8FBFF36F8F84
:1038600062B6FEE702FB01F203EB02004268526817
:103870004260426810F108039A4202D142685268DD
:1038800042604068C068354A1060704738B504002F
:103890000D00002C09D172B6502080F31188BFF3BF
:1038A0004F8FBFF36F8F62B6FEE7DFF8B805006891
:1038B00010F11801200003F005FA0121280000F0A2
:1038C0008FFA31BD38B50500E868C468002C09D10D
:1038D00072B6502080F31188BFF34F8FBFF36F8F04
:1038E00062B6FEE714F1180003F007FA66480068B4
:1038F000002813D1201D03F000FA1B490A68012398
:10390000E06A83401A430A60211D184AE36A1420C2
:10391000434302EB030003F0C9F905E014F1180179
:10392000DFF8900403F0C2F90C480068C06AE16A4D
:10393000884205D201200121DFF8A024116000E0B7
:10394000002032BDDFF8901409680160DFF8181517
:103950000968416070470000C0EF0020B0EF002010
:10396000CCEF0020DCEF0020C8EF002080EA002030
:103970002DE9F04104000D00002C09D172B6502051
:1039800080F31188BFF34F8FBFF36F8F62B6FEE7EE
:10399000002D09D172B6502080F31188BFF34F8FEC
:1039A000BFF36F8F62B6FEE703F0F9F8DFF8140497
:1039B00006686768F71B286810F1010F02D15FF0F5
:1039C00000081BE0DFF8100400682168884205D079
:1039D0006068864202D35FF001080FE028688742E2
:1039E00008D22868C01B28602000FFF7ABFF5FF0FB
:1039F000000803E0002028605FF0010803F0EDF804
:103A00004046BDE8F0810120DFF8D0130860704720
:103A100010B5040000F03AF8DFF8500400680228FE
:103A2000F8D35FF080509E490860BFF34F8FBFF31B
:103A30006F8FEFE770B50024072C09D2DFF82C0454
:103A4000142101FB04F1084403F01EF9641CF3E7A0
:103A5000DFF81C54280003F017F9DFF81864300071
:103A600003F012F9DFF84C0303F00EF9DFF8080455
:103A700003F00AF98B4803F007F9DFF854030560F7
:103A8000DFF8F803066070BDE8EF002038B5DFF816
:103A9000F0532868002817D003F081F8DFF8D80326
:103AA000C068C0680400201D03F027F9DFF8D403C4
:103AB0000168491E01602868401E286003F08DF8E7
:103AC000200000F002F8E2E731BD10B50400206BE1
:103AD000FFF718FB2000FFF715FB10BDDFF8F02201
:103AE00010680068002805D15FF0FF30DFF8D022B1
:103AF000106007E01068C068C06801004868DFF81F
:103B0000C02210607047DFF880030068002801D1F0
:103B1000012007E0DFF874030068002801D10220CB
:103B200000E000207047000004ED00E02DE9F843BC
:103B3000040025000026002C52D0DFF82893E86A04
:103B4000D9F80010C96A884242D2A869002805D471
:103B5000D9F80000C06AD0F10700A861DFF80C7343
:103B60005FF014086869E96A08FB01F1394488428A
:103B700027D1281D03F0C1F800280DD1E86A08FB01
:103B800000F03858002807D1DFF804130A68012331
:103B9000E86A83409A430A60D9F80000C06AE86284
:103BA000DFF8EC120A680123E86A83401A430A60CE
:103BB000291DE86A08FB00F807EB080003F076F817
:103BC00003E0D9F80000C06AE8620120060007E0BF
:103BD000686CD9F80010C96A884201D20120060039
:103BE0003000BDE8F28370B5040025000026002CEB
:103BF00054D0DFF870020068854209D072B65020B8
:103C000080F31188BFF34F8FBFF36F8F62B6FEE76B
:103C1000A86C002809D172B6502080F31188BFF338
:103C20004F8FBFF36F8F62B6FEE7A86C401EA8648B
:103C3000E86A696C884231D0A86C00282ED1281D12
:103C400003F05BF800280FD1DFF82012EA6A142095
:103C500042438858002807D1DFF834120A6801234C
:103C6000E86A83409A430A60686CE862E86AD0F1C7
:103C70000700A861DFF818120A680123E86A834088
:103C80001A430A60291DDFF8E421EB6A142043433C
:103C900002EB030003F00AF801200600300070BDBB
:103CA00004ED00E068EF00202DE9F84F04000F005C
:103CB000A0465FF00109002C6FD0D8F8480000281A
:103CC00009D172B6502080F31188BFF34F8FBFF334
:103CD0006F8F62B6FEE7D8F84400B84201D23E00CA
:103CE00002E0D8F844000600D8F82C00B04254D0C6
:103CF000D8F84800484550D1DFF868010068804591
:103D000009D172B6502080F31188BFF34F8FBFF3F3
:103D10006F8F62B6FEE7D8F82C000500C8F82C605B
:103D2000D8F81800002803D4D6F10700C8F8180006
:103D3000DFF838A15FF0140BD8F814000BFB05F185
:103D40005144884229D118F1040002F0D6FF00281E
:103D500010D1D8F82C000BFB00F05AF80000002816
:103D600008D1DFF82C110A680123D8F82C00834011
:103D70009A430A60DFF818110A680123D8F82C006A
:103D800083401A430A6018F10401D8F82C000BFB99
:103D900000FB0AEB0B0002F089FFBDE8F18FDFF8B2
:103DA000C4100868002803D00868826C521C826422
:103DB0000868704740EF0020E4EF002064750108B8
:103DC000E0EF0020C4EF0020D0EF0020D4EF00206F
:103DD000B4EF0020B8EF0020D8EF0020D4EF00208F
:103DE0002DE9F04105000C001F480768DFF87480DA
:103DF000D8F80000001D02F080FF002808D1D8F894
:103E0000000023490A680123C06A83409A430A607C
:103E100015F1010F08D1002C06D0D8F80000011DC3
:103E20001C4802F043FF1AE0E8190600D8F8000029
:103E30004660BE4207D2D8F80000011D0F48006856
:103E400002F040FF0BE0D8F80000011D12480068A6
:103E500002F038FF114801688E4200D20660BDE8CA
:103E6000F0810000B0EF0020C4EF002080EA0020C5
:103E700018EF00202CEF002054EF0020B8EF0020B6
:103E8000BCEF0020C0EF0020CCEF0020E8EF0020C6
:103E9000C8EF002068EF0020B4EF0020E0EF002022
:103EA00070B504000025607C032802D10C200500B9
:103EB00004E0607C042801D10A2005002068FEF798
:103EC0001BFA0600B61C76196068002805D06068E9
:103ED000FEF712FA801C80190600A068002805D0A1
:103EE000A068FEF709FA801C80190600300070BD3A
:103EF00000280FD000290DD04A7C42740A68026065
:103F00004A6842604A8A42820A7D02754A7D427549
:103F10008A68826070472DE9FF47040088461500D3
:103F20001E00002C02D17FF001008EE0002D02D196
:103F30007FF0010089E02868002802D17FF00100AD
:103F400083E02868FEF7D8F9002802D17FF001004D
:103F50007BE0002E02D17FF0010076E00294002089
:103F60008DF804005FF0000A00272800FFF798FF93
:103F70008146484601F050FA804502D27FF0760033
:103F800063E00020009000230022012101A801F03D
:103F9000FBFA0700002F01D0380056E09DF804100E
:103FA00002A801F0B5FA4946029801F027FA0299F1
:103FB00008440290687C042808D1254902A801F031
:103FC000C8FA042102A801F0A3FA07E0214902A8D7
:103FD00001F0BFFA032102A801F09AFA287D002817
:103FE00001D0022000E0002050EA0A0A6868002898
:103FF00001D0802000E0002050EA0A0A5AF0400A6E
:104000005146C9B202A801F083FA698A02A801F0F8
:1040100085FA296802A801F09CFA5FEA0A6006D5D1
:104020006868002803D0696802A801F092FA5FEA84
:104030004A6006D5A868002803D0A96802A801F044
:1040400088FA0298001B3060002004B0BDE8F087B9
:10405000BC740108C47401082DE9F04F85B0040058
:104060000D0016009846002C02D17FF0010076E08A
:10407000002D02D17FF0010071E0002E02D17FF00F
:1040800001006CE0002700965FF00009002003901B
:10409000002002905FF0000AB8F1040F02D27FF016
:1040A00076005CE0684601F02BFA83465846C0B2C1
:1040B00000098DF804009DF80400022802D05FF08A
:1040C000FF304CE002AA03A9009801F0F9F90700BB
:1040D000002F01D0380042E0009802990844009077
:1040E000009803990844049004990098091A022939
:1040F00002D05FF0FF3032E0684601F001FA8146FD
:1041000019F001002070684601F0FAF9010008007A
:10411000C0B2002808D002280DD008D3042812D03D
:104120000DD3052813D016E00320286016E07FF099
:104130007000286012E07FF0710028600EE07FF0D0
:10414000720028600AE07FF07300286006E07FF0CC
:104150007400286002E07FF06F002860002005B046
:10416000BDE8F08F2DE9FF4107000C005FF0FF363E
:10417000029600208DF800000020019003A8FEF7B1
:1041800072FBB96803A8FEF758FB002C05D021008C
:1041900041F23C003844FFF7ABFE41F25400384492
:1041A00041F27401795888470500002D01D028009C
:1041B00062E04FF4815857F80800FDF755FA01AB5B
:1041C00041F23C0007EB0002796917F11C00FFF790
:1041D000A2FE0600002E02D10198002805D157F852
:1041E0000800FDF756FA300046E003AA01993800AE
:1041F00001F080FB0500002D05D057F80800FDF701
:1042000048FA280038E057F80800FDF742FA002382
:1042100003AA0221380002F0ADF90600002E01D0F9
:10422000300029E0BB6907F61C0202A96846FFF7C7
:1042300013FF0500002D01D028001DE0029803287F
:1042400001D0029818E00121380002F0C2F941F2D1
:104250001C06B859FDF708FA002078700020B870E5
:1042600041F24E00395A41F278003844FEF7EDFA37
:10427000B859FDF70EFA002004B0BDE8F08170B522
:1042800006000D00002E02D17FF001001AE0002D83
:1042900002D17FF0010015E0300002F0A7F90028FC
:1042A00001D004200EE029003000FFF75BFF04007E
:1042B000002C06D041F25400304441F27001715894
:1042C0008847200070BD38B50400002C02D17FF073
:1042D00001001EE0200002F089F9002801D004202E
:1042E00017E041F23C0004EB00012000FFF7C7FF9C
:1042F0000500200002F07AF9002801D1280008E02A
:10430000200000F0DCFF0100002901D0080000E0DF
:10431000012032BD7CB50500002D02D17FF00100E7
:1043200045E000200090280002F060F9002802D14A
:104330007FF066003BE04FF48156A859FDF794F9F1
:104340006B460E22696915F11C0001F099FA040010
:10435000002C04D0A859FDF79CF9200027E001A803
:10436000FEF781FAA96801A8FEF767FA009800280D
:104370000CD001AA0099280001F0BCFA0400002C1E
:1043800004D0A859FDF785F9200010E0A859FDF7E1
:1043900080F941F25400284441F27001695888477D
:1043A0000021280002F015F901206870002076BD78
:1043B0001CB5040041F23403E05800280BD0012062
:1043C0008DF80000002001906A4641F23800215823
:1043D0002000E358984713BD1CB5040041F2340394
:1043E000E05800280BD002208DF80000002001903A
:1043F0006A4641F2380021582000E358984713BD1F
:1044000038B50500280002F0F1F8002802D17FF04D
:10441000660025E02800FFF77DFF0400002C0AD08D
:1044200041F25400284441F2700169588847002144
:10443000280002F0CEF85222DFF87815DFF8780570
:10444000FDF73FF9DFF87405FDF73BF9C7A0FDF76D
:1044500038F92800FFF7ACFF002068707FF0660095
:1044600032BDF8B50400012741F27C0604EB0600DA
:10447000FEF7DDF9002802D17FF068003AE0200065
:10448000FFF721FF0500012D12D16B22DFF8301557
:10449000DFF82405FDF715F9DFF82805FDF711F918
:1044A000B2A0FDF70EF92000FFF796FF280021E0EB
:1044B0007022DFF80C15DFF80005FDF702F929007E
:1044C000DFF80405FDF7FDF8A8A0FDF7FAF87FF086
:1044D0006807E0684000E060E0684EF661218842CD
:1044E00002D34EF66020E060E16804EB0600FEF7C0
:1044F000A4F93800F2BD2DE9FE430500002000902C
:1045000041F24E06A85B002801D1002091E041F263
:10451000780805EB0800FEF78AF9002801D1002091
:1045200087E0A878022811DB9822DFF8A014DFF8D2
:104530008804FDF7C6F8DFF89804FDF7C2F88BA0F1
:10454000FDF7BFF82800FFF75BFF72E04FF48159D9
:1045500055F80900FDF788F86B460C22696915F1DA
:104560001C0001F08DF90400002C05D055F809005D
:10457000FDF78FF820005CE0002701A8FEF773F933
:10458000A96801A8FEF759F901AA0099280001F0CD
:10459000B1F90400002C03D03800471C0328EFDBDE
:1045A000002C15D055F80900FDF773F8B022DFF89C
:1045B0001C14DFF80404FDF784F8DFF81804FDF795
:1045C00080F86AA0FDF77DF82800FFF719FF30E0BA
:1045D00055F80900FDF75DF841F21C0955F809008E
:1045E000FDF742F8A878401CA870A85B022190FB58
:1045F000F1F0062801DB052103E0A85B022190FB16
:10460000F1F105EB0800FEF720F955F80900FDF778
:1046100040F8BB22DFF8B413DFF8BC03FDF751F814
:10462000A978DFF8B803FDF74CF850A0FDF749F87A
:104630000020BDE8FE837CB505000E000024002D9F
:1046400002D17FF001008FE0002E02D17FF0010047
:104650008AE0280001F0CAFF002804D16878012808
:1046600001D1022080E0280001F0C0FF002807D11E
:1046700041F25100285C002802D17FF0660073E00F
:1046800001A8FEF7F0F8310001A8FEF7D6F801A85E
:10469000FEF7CDF8002866D1280001F0A7FF00281A
:1046A0000DD1E8684EF66121884203D37FF069009E
:1046B000040058E02800FFF7D4FE0400E7E7642078
:1046C000FDF71CF800236A4601A9280001F0C8FE86
:1046D0000400002C0AD1280000F04AF8280000F05D
:1046E000CAF82800FFF707FF040021E0BC48844215
:1046F00008D014F5317F05D014F5187F02D0B948E1
:10470000844210D1F122B849AB48FCF7DAFF21000E
:10471000B648FCF7D6FF15A0FCF7D3FF2800FFF73B
:104720006FFE040004E014F1010F01D10020040029
:1047300014F1670F15D12869401C286141F251001E
:10474000285C01280CD14FF47A70E860E96841F2E6
:104750007C002844FEF771F87FF06800040096E7BB
:1047600001E0002C93D0200076BD00000A0000007C
:104770002DE9FC470700002F02D17FF0010078E00F
:1047800041F2240857F80800FCF76EFF41F22C0AAA
:1047900057F80A008068002866D00024002501210F
:1047A00057F80A00FDF73DF8814600280CD140F289
:1047B00023128F498048FCF784FF8E48FCF781FF65
:1047C0007BA0FCF77EFF4FE04846FDF749F8040068
:1047D000002D06D0290057F80A00FCF7FAFF002048
:1047E0000500002C03D14846FDF746F83CE0A668DA
:1047F000002E0DD140F235127D496F48FCF761FF64
:104800007D48FCF75EFF6AA0FCF75BFF2500DBE755
:104810003079012801D12500D6E738780028D3D097
:104820003000FEF71AF80128CEDA57F80800FCF736
:1048300030FF2500B9683000FDF7FFFF57F808008A
:10484000FCF712FF41F23403F8580028BCD00A20CC
:104850008DF80000F08801906A4641F2380039581E
:104860003800FB589847AFE757F80800FCF711FFEE
:104870000020BDE8F6872DE9F84F84B08346002775
:10488000BBF1000F02D17FF001008EE041F2280859
:104890005BF80800FCF7E8FE41F230095BF809001C
:1048A000806800287CD0002400255FF0000A0121E8
:1048B0005BF80900FCF7B5FF0390002811D14FF415
:1048C000BF724E493C48FCF7FCFE4A48FCF7F9FE33
:1048D00037A0FCF7F6FE5BF80800FCF7DAFE0020D4
:1048E00063E00398FCF7BCFF0400002D06D029000C
:1048F0005BF80900FCF76DFF00200500002C03D1D8
:104900000398FCF7B9FF4BE0A668002E0DD140F2EA
:1049100091123A492848FCF7D4FE3748FCF7D1FEFB
:1049200023A0FCF7CEFE2500DBE7307A012801D179
:104930002500D6E79BF800000028D2D0301DFDF7F7
:104940008CFF0128CDDA7088824630788DF800001F
:1049500041F234035BF80300002819D09DF80000F1
:10496000082806D104208DF80400504680B2029039
:1049700005E007208DF80400504680B2029001AA9D
:1049800041F238005BF8001058465BF80330984756
:10499000F068002802D0F068FCF78DFE2500A0E743
:1049A0005BF80800FCF775FE380005B0BDE8F08F35
:1049B0000A00000044690108646F0108F84C01080E
:1049C0005869010838540108404401086C6901081D
:1049D0005C3E01089C3D0108806901081C4D0108EE
:1049E0003DFDFFFFA2FDFFFF746F010804430108B6
:1049F000F0610108846F0108BC5B010808620108CE
:104A00002DE9F04104000D0016001F005FF0FF3893
:104A10003068381A022826DB300000F05FFD28805D
:104A2000288840F60101884210DB3822DFF8AC15F7
:104A3000DFF8AC05FCF745FEDFF8A805FCF741FE02
:104A40006DA0FCF73EFE5FF0FF300DE03068298876
:104A50000844874207D330682060306829880844BA
:104A60003060002000E04046BDE8F081F8B5040069
:104A70000D00160000272800FDF73EFC3018801CB2
:104A8000C0192100C9B2002900D0801CF2BD2DE957
:104A9000FE4F04000F0090461D00002C01D0002D99
:104AA00010D15A22DFF84015DFF83405FCF709FE73
:104AB000DFF83805FCF705FE4FA0FCF702FE7FF09B
:104AC000650096E0002F02D46069B84210D25F22E0
:104AD000DFF81415DFF80805FCF7F3FDDFF8100523
:104AE000FCF7EFFD44A0FCF7ECFD5FF0FF3080E049
:104AF00041F2240954F80900FCF7B6FD41F22C0AF2
:104B000054F80A008068142817D354F80900FCF7F9
:104B1000C0FD6722DFF8D014DFF8C404FCF7D1FD34
:104B200054F80A008168DFF8CC04FCF7CAFD32A013
:104B3000FCF7C7FD5FF0FF305BE017F11000FCF7FA
:104B4000B4FD0600002E14D154F80900FCF7A1FDB5
:104B50006E22DFF89414DFF88804FCF7B2FDDFF86A
:104B60009804FCF7AEFD24A0FCF7ABFD5FF0FF302E
:104B70003FE000203071A6F80680B7603000FDF7F6
:104B800072FEA1683000FDF758FE16F11000F060CB
:104B9000019714F11C000090D6F80CB0019A00990E
:104BA0005846FDF775FE3000FCF76DFE286028685A
:104BB000002814D154F80900FCF76BFD7F22DFF8C0
:104BC0002814DFF81C04FCF77CFDDFF83004FCF748
:104BD00078FD09A0FCF775FD5FF0FF3009E029685A
:104BE00054F80A00FCF7A7FD54F80900FCF751FD42
:104BF0000020BDE8FE8F00000A0000002DE9F04F04
:104C000085B004000D0016001F00DDF84890DDF8A7
:104C10004CA0002C02D17FF001006AE0002D02D1EF
:104C20007FF0010065E0002E02D17FF0010060E01E
:104C3000002F02D17FF001005BE05FF00008CDF8AB
:104C40000090002002900020049000200390BAF110
:104C5000040F02D27FF076004BE0684600F050FC73
:104C600083465846C0B200098DF80400CBF3C0005B
:104C70002070CBF3410028701BF0010030709DF8CC
:104C80000400032802D05FF0FF3032E003AA04A939
:104C9000009800F015FC8046B8F1000F01D04046A6
:104CA00027E000980399084400900098049908446C
:104CB0000290029B6A460F990E98FFF7A1FE00280A
:104CC00004D102990098091A002902D55FF0FF303B
:104CD0000FE02878002803D0684600F0FFFB3880FA
:104CE00002990098091A11980160009810990860BB
:104CF000002005B0BDE8F08F2DE9FE4F0400884686
:104D000091469A460C9F0D9D002C02D17FF0010028
:104D10003CE0002D02D17FF0010037E000208DF84B
:104D2000040002944846C0B2062802D15FF0010B8D
:104D300001E05FF0000B002000905346DBB25A46C2
:104D4000D2B24946C9B201A800F01EFC0600B8F173
:104D5000040F02D27FF0760018E0002E01D0300060
:104D600014E09DF8041002A800F0D2FB0221029882
:104D700000F044FB029908440290390089B202A86D
:104D800000F0CCFB0298001B28600020BDE8FE8FDD
:104D90002DE9F74F84B004009846139DDDF850903C
:104DA000159E002C02D17FF0010058E0002E02D1A8
:104DB0007FF0010053E0002D02D17FF001004EE0B2
:104DC000029400208DF8040000274A4612994046BC
:104DD000C0B2FFF74BFE8246504600F01DFB05991E
:104DE000814202D27FF0760039E09DF840000090C9
:104DF0009DF818304246D2B2032101A800F0C4FB4E
:104E00000700002F01D0380029E09DF8041002A807
:104E100000F07EFB5146029800F0F0FA0299084437
:104E20000290129902A800F094FB4046C0B20028FC
:104E300004D0BDF8441002A800F070FBCDF80C902F
:104E40000095DDF808B0039A00995846FDF720FD5B
:104E50000298484402900298001B3060002007B07E
:104E6000BDE8F08F2DE9F84789B005000E00170066
:104E7000002D02D17FF00100ABE0002F02D17FF0C6
:104E80000100A6E0002E02D17FF00100A1E0300079
:104E9000FDF732FA002802D17FF0010099E00020EE
:104EA0000690002007903000FDF726FA8146B9F100
:104EB000810F02D37FF089008BE0387802280ED171
:104EC00040F23F124E494648FCF7FBFB4D48FCF7C9
:104ED000F8FB41A0FCF7F5FB7FF0770079E02800B4
:104EE00001F084FB002802D17FF0660071E008A881
:104EF000FDF7B9FCA96808A8FDF79FFC4FF4815A9B
:104F000055F80A00FCF7B0FB3878012803D12800D7
:104F100000F059FAB88006A80590786904903869BD
:104F200003900296B8880190787800903B78002230
:104F3000696915F11C00FFF72BFF0400002C05D058
:104F400055F80A00FCF7A5FB200042E0387800285D
:104F50001AD007ABBA8806992800FFF798FD04001D
:104F6000002C11D04FF4AE7225491D48FCF7A9FB67
:104F70002548FCF7A6FB18A0FCF7A3FB55F80A0090
:104F8000FCF787FB200024E008AA0699280000F01F
:104F9000B1FC8046B8F1000F16D0387800280DD04B
:104FA00041F224042859FCF75FFB079941F22C00D9
:104FB0002858FCF70EFC2859FCF76BFB55F80A0043
:104FC000FCF767FB404604E055F80A00FCF761FB7C
:104FD000B8880AB0BDE8F0870A00000078610108CF
:104FE000346F0108DC460108906101080869010876
:104FF000A05B0108C03F0108A8610108C061010869
:105000001C690108F853010804470108F8B50400B9
:105010000D0002270026A64208D228683044FDF77A
:105020006BF9C01CC0190700761CF4E73800F2BD0C
:105030002DE9FE4F84B00400109FDDF84480DDF8B8
:105040004890139D002C02D17FF001004FE0002D0D
:1050500002D17FF001004AE0029400208DF80400A4
:1050600000260020039041463800FFF7CFFF82461C
:10507000504600F0D1F90499814202D27FF07600C7
:1050800035E0002000909DF814300122082101A88D
:1050900000F07AFA0600002E01D0300027E09DF8DB
:1050A000041002A800F034FA5146029800F0A6F964
:1050B000029908440290BDF8181002A800F02EFAD8
:1050C0005FF0000BBB450ED2D8F8000000EB0B01DF
:1050D00002A800F03EFA19F80B1002A800F018FA26
:1050E0001BF1010BEEE70298001B2860002007B0BF
:1050F000BDE8F08F2DE9F84F8CB004000D001600CC
:10510000002C02D17FF00100D6E0002E02D17FF00A
:105110000100D1E0002D02D17FF00100CCE0280099
:10512000FDF7EAF8002802D17FF00100C4E000207A
:1051300005900027002006902800FDF7DDF8814645
:10514000B9F1810F02D37FF08900B5E030780228F1
:105150000DD17E2282498348FCF7B3FA8248FCF7DE
:10516000B0FA7EA0FCF7ADFA7FF07700A4E0200053
:1051700001F03CFA002802D17FF066009CE019F1B2
:105180000100FCF792FA0490049800280DD18922BE
:1051900073497448FCF795FA7448FCF792FA6FA0CB
:1051A000FCF78FFA5FF0FF3086E02900049802F0E8
:1051B00065FD0020049901F8090007A8FDF753FBDD
:1051C000A16807A8FDF739FB4FF4815B54F80B0089
:1051D000FCF74AFA200000F0F6F8824605A8039092
:1051E000029604A801900120009053469BB2002231
:1051F000616914F11C00FFF71BFF8046B8F1000F36
:1052000008D054F80B00FCF744FA0498FCF753FA62
:10521000404651E0049808907068099030788DF805
:105220002C00B0680A9006A8019008A800900823F6
:10523000524692B20599200001F0E7F90700002FCD
:1052400013D0A82246494748FCF73BFA4848FCF7E8
:1052500038FA42A0FCF735FA54F80B00FCF719FABB
:105260000498FCF728FA380026E007AA05992000E0
:1052700000F040FB8046B8F1000F16D041F228073D
:10528000E059FCF7F1F9069941F230002058FCF79B
:10529000A0FAE059FCF7FDF954F80B00FCF7F9F916
:1052A0000498FCF708FA404606E054F80B00FCF7B7
:1052B000F0F91FFA8AFA50460DB0BDE8F08F2DE9DB
:1052C000FF410500002D02D17FF0010042E05FF0B8
:1052D00000080024280001F089F9002802D17FF09D
:1052E000660037E000270A2F33D23801284410F532
:1052F000845000680400002C29D03801284441F271
:105300008401405801903801284441F28C01405CEE
:105310008DF800003801284441F28801405802907D
:105320006A4621002800FFF7E5FE0600002E0ED594
:10533000D72210490B48FCF7C4F9220031000E486F
:10534000FCF7BFF905A0FCF7BCF9300002E07F1CB8
:10535000C9E7002004B0BDE8F08100000A000000A9
:1053600030690108446F010818540108546F01089E
:1053700014440108D8610108D44C010870B5050037
:105380000C00002D01D0002C01D101201AE028686A
:10539000FCF7B2FF06002068FCF7AEFF864201D0A2
:1053A00001200FE032002168286801F035FB002859
:1053B00001D0012006E068686168884201D00120C0
:1053C00000E0002070BD38B50400002C02D14FF67B
:1053D000FE7012E041F21C056059FCF745F9A08807
:1053E0004FF6FF71884201D1012001E0A088401CE6
:1053F000A0806059FCF74DF9A08832BD0200002062
:1054000011F07F03C909002901D053F08003135420
:10541000401C0029F4D17047401C802801D2401C58
:105420000BE0B0F5804F01D2801C06E0DFF8CC1A0B
:10543000884201D2C01C00E0001D70472DE9F843EE
:1054400004000D00160001275FF00008002028600E
:1054500018F10108B8F1050F02D37FF06D001BE0D1
:105460005FF0000901216846A0470100012902D030
:105470005FF0FF3010E028689DF8002012F07F02F6
:1054800007FB02002860802047439DF800000006CB
:10549000DED4C6F800800020BDE8F28310B402001C
:1054A00000238B4209D2DFF8580A0468247814706C
:1054B0000468641C04605B1CF3E7080010BC7047C0
:1054C00070B504000D001600DFF8340A04603200E5
:1054D0002900DFF8300AFFF7B1FF70BD30B40100DA
:1054E0000A68137854781D00EDB24FF4807045437C
:1054F00055FA84F00D68AD1C0D6080B230BC704769
:105500000100086800780A68521C0A60C0B270473F
:10551000026811700268521C0260704710B40A00E1
:1055200092B24FF4807392FBF3F203681A70026830
:10553000521C02600A0092B24FF4807392FBF3F4A3
:1055400003FB142203681A700268521C026010BC2C
:1055500070472DE9F84304000D002800FCF7CCFE4D
:105560000600310089B22000FFF7D8FF3700A846B7
:10557000D4F800903A0041464846FDF789F9206882
:1055800030442060BDE8F183F0B40400049D002C99
:1055900002D17FF001005CE00800C0B2002815D005
:1055A000022818D015D3042819D016D306281AD0EB
:1055B00017D308281BD018D30A281CD019D30C28BD
:1055C0001DD01AD30E281ED01BD31EE07FF067001B
:1055D0003FE001261CE002261AE0032618E004261C
:1055E00016E0052614E0062612E0072610E008263D
:1055F0000EE009260CE00A260AE00B2608E00C263D
:1056000006E00D2604E00E2602E07FF0670020E0B1
:105610001000C0B2002803D0022805D002D305E054
:10562000002704E0012702E0022700E000275FEAEC
:10563000C30C1CF0080C5CEA061C780010F0060095
:1056400050EA0C0C15F0010050EA0C0C84F800C074
:105650000020F0BC70472DE9F84F84B004000D0025
:1056600016001F00DDF83890002C02D17FF00100F9
:105670006AE0002D02D17FF0010065E0002E02D12A
:105680007FF0010060E0002F02D17FF001005BE0BD
:1056900000208DF80C0000975FF0000B00200290B6
:1056A00000200190B9F1040F02D27FF076004BE0A8
:1056B0006846FFF725FF82465046C0B200092070B9
:1056C000CAF3C000287001AA02A90098FFF7F8FEEB
:1056D0008046B8F1000F01D0404635E000980199AE
:1056E0000844009000980299084403900399009898
:1056F000091A022902DA5FF0FF3025E06846FFF759
:10570000EDFE308003990098091A01291BDB6846D9
:10571000FFF7F6FE83465846C0B2002813D04FF478
:10572000AD72DFF8A81ADFF8A80AFBF7CAFF5946DE
:10573000C9B2DFF8A00AFBF7C4FF05A0FBF7C1FF61
:105740005FF0FF3000E0002005B0BDE8F08F000002
:105750000A0000002DE9F04F85B0040088461500CE
:105760001E00DDF83C90002C02D17FF001005EE0CD
:10577000002D02D17FF0010059E0002E02D17FF010
:10578000010054E000270E9800905FF0000A00200E
:10579000039000200290B9F1050F02D27FF076004D
:1057A00045E06846FFF7ACFE83465846C0B20009A4
:1057B0008DF804009DF80400092802D05FF0FF3046
:1057C00035E002AA03A90098FFF77AFE0700002F30
:1057D00001D038002BE0009802990844009000980E
:1057E00003990844049004990098091A022902DADE
:1057F0005FF0FF301BE06846FFF770FE208000205E
:10580000286000980499884210D22868804502D206
:105810005FF0FF300BE0D5F800A01AF1010028601E
:105820006846FFF76DFE06F80A00EAE7002005B0BB
:10583000BDE8F08F7CB504000D001600002D02D1EC
:105840007FF001001BE0002C02D17FF0010016E088
:1058500000208DF8040000208DF8050000962B0034
:1058600022000DF1050101A8FFF7F5FE002806D181
:105870009DF804100B2902D05FF0FF31080076BDBF
:105880002DE9FF4104000F0090461D00002C02D1BD
:105890007FF001002BE0002D02D17FF0010026E017
:1058A00000208DF804000294042F02D27FF07600CD
:1058B0001DE000200090002300224146C9B201A84B
:1058C000FFF762FE0600002E01D030000FE09DF8C9
:1058D000041002A8FFF71CFE00210298FFF78EFDBE
:1058E0000299084402900298001B2860002004B02E
:1058F000BDE8F0812DE9F04104000E001500002CF8
:1059000002D17FF001002FE0002D02D17FF00100D5
:105910002AE000276069864202D37FF0760023E008
:10592000B7421BD22800FCF782FF002816D15FF097
:1059300000082800FCF791FF0300320004EB070089
:1059400010F11C0141F25400204441F26C0C54F857
:105950000CC0E047002801D4C719E1E7B74201D1E4
:10596000002001E05FF0FF30BDE8F0812DE9FC414F
:1059700004000D001600002C02D17FF0010030E081
:10598000002D02D17FF001002BE001275FF000081D
:105990000020286018F10108B8F1050F02D37FF04C
:1059A0006D001EE033000122694641F2540020449C
:1059B00041F2680C54F80CC0E047012802DA5FF0AD
:1059C000FF300EE028689DF8001011F07F0107FB02
:1059D00001002860802047439DF800000006D9D4CC
:1059E0000020BDE8F6812DE9F64F83B005000E00DA
:1059F000002D02D17FF00100D6E0002E02D17FF011
:105A00000100D1E00027002000905FF0000A300084
:105A1000FCF723FF8346BBF1010F01DA0120834627
:105A200041F2680841F254095B46012205F61C0167
:105A300005EB090055F80840A0470400002C01D5EB
:105A40002000B1E0002C02D17FF06C00ACE001201E
:105A500002903000FCF701FF012801DA0121080063
:105A600010F5FA6083465A4669462800FFF77EFF24
:105A70000700002F01D0380096E00098A9698842FD
:105A800041D35FF0000A3000FCF7E7FE012801DA9D
:105A90000121080010F5FA600190D5F818B0019BBB
:105AA0005A4605F61C0105EB090055F808C0E04709
:105AB0000400012C0EDB14EB0A0A0098B0EB0A007C
:105AC000A969884202D3A869834603E00098B0EB35
:105AD0000A0083460098824501D2012CDFDA40F2A9
